:020000040800F2
:1000000000500020211900087D0300088903000822
:100010008F030008950300089B0300080000000000
:10002000000000000000000000000000A103000824
:10003000AD03000800000000B9030008C503000874
:100040006919000869190008691900086919000888
:100050006919000869190008691900086919000878
:100060006919000869190008691900086919000868
:100070006919000869190008691900086919000858
:100080006919000869190008691900086919000848
:100090006919000869190008691900086919000838
:1000A0006919000869190008691900086919000828
:1000B0006919000869190008691900086919000818
:1000C0006919000869190008691900086919000808
:1000D00069190008691900086919000869190008F8
:1000E0006919000869190008691900080000000072
:1000F0000000000000000000000000000000000000
:0C01000000000000000000005FF808F1A3
:10010C0010B5054C237833B9044B13B10448AFF345
:10011C0000800123237010BD70000020000000003F
:10012C009824000808B5034B1BB103490348AFF3EF
:10013C00008008BD00000000740000209824000816
:10014C0070B500260C4D0D4C641BA410A64209D1B1
:10015C0002F09CF900260A4D0A4C641BA410A6421E
:10016C0005D170BD55F8043B98470136EEE755F8BC
:10017C00043B98470136F2E76C2500086C25000813
:10018C006C2500087025000803460244934200D1F8
:10019C00704703F8011BF9E780B586B000AF07F193
:1001AC00080300221A605A609A60DA60114B9B694E
:1001BC00104A43F0040393610E4B9B6903F0040354
:1001CC007B607B68002220210B4800F00FFD202370
:1001DC00BB600123FB6000233B6102237B6107F1C1
:1001EC0008031946044800F079FB00BF1837BD46D8
:1001FC0080BD00BF001002400008014080B584B0F3
:10020C0000AFF860B9607A607B689AB2FF23B96876
:10021C00034801F084F97B6818461037BD4680BD51
:10022C0098000020B0B586B000AF134B3C461D467D
:10023C000FCD0FC495E8030020600434217000F04A
:10024C00E3F900F021F8FFF7A7FF00F069F90B4B79
:10025C001B68986800230222002101F0FDFB20217D
:10026C00074800F0DBFC4FF47A7000F02FFA0548D9
:10027C0001F0EAFBF3E700BFC824000800000020EF
:10028C0000080140B024000880B590B000AF07F121
:10029C001803282200211846FFF776FF3B1D002289
:1002AC001A605A609A60DA601A610223BB610123FA
:1002BC00BB621023FB6200237B6307F11803184613
:1002CC0000F0BEFC0346002B01D000F018F80F2301
:1002DC007B600023BB600023FB6000233B61002399
:1002EC007B613B1D0021184600F00EFF0346002BDE
:1002FC0001D000F004F800BF4037BD4680BD80B48B
:10030C0000AF00BFBD4680BC7047000080B485B014
:10031C0000AF154B9B69144A43F001039361124BD8
:10032C009B6903F00103BB60BB680F4BDB690E4A92
:10033C0043F08053D3610C4BDB6903F080537B603B
:10034C007B680A4B5B68FB60FB6823F0E063FB6037
:10035C00FB6843F00073FB60044AFB68536000BF0A
:10036C001437BD4680BC70470010024000000140AD
:10037C0080B400AF00BFBD4680BC704780B400AFF6
:10038C00FEE780B400AFFEE780B400AFFEE780B4B8
:10039C0000AFFEE780B400AF00BFBD4680BC704725
:1003AC0080B400AF00BFBD4680BC704780B400AFC6
:1003BC0000BFBD4680BC704780B500AF00F06AF945
:1003CC0000BF80BD80B586B000AFF860B9607A60C0
:1003DC0000237B610AE0AFF300800146BB685A1C26
:1003EC00BA60CAB21A707B6901337B617A697B6827
:1003FC009A42F0DB7B6818461837BD4680BD80B446
:10040C0083B000AF78604FF0FF3318460C37BD4611
:10041C0080BC704780B483B000AF786039603B68B3
:10042C004FF400525A60002318460C37BD4680BC6E
:10043C00704780B483B000AF7860012318460C3746
:10044C00BD4680BC704780B485B000AFF860B96021
:10045C007A60002318461437BD4680BC70470000F4
:10046C0080B584B000AF7860114B1B68002B02D1B3
:10047C000F4B104A1A600E4B1B68FB600C4B1A6832
:10048C007B6813446A46934207D901F069FA034624
:10049C000C221A604FF0FF3306E0054B1A687B689C
:1004AC001344034A1360FB6818461037BD4680BDE1
:1004BC008C000020EC00002080B400AF154B1B68B2
:1004CC00144A43F001031360124B5A681149124B42
:1004DC0013404B600F4B1B680E4A23F0847323F4BC
:1004EC00803313600B4B1B680A4A23F48023136080
:1004FC00084B5B68074A23F4FE035360054B4FF42B
:10050C001F029A60054B4FF000629A6000BFBD4617
:10051C0080BC7047001002400000FFF800ED00E0C6
:10052C0080B500AF114B124A1A60104B4FF4E132F8
:10053C005A600E4B00229A600C4B0022DA600B4B77
:10054C0000221A61094B0C225A61084B00229A6155
:10055C00064B0022DA61054800F094FF0346002B9D
:10056C0001D0FFF7CCFE00BF80BD00BF980000207B
:10057C000044004080B588B000AF786007F11003EC
:10058C0000221A605A609A60DA607B681B681B4A0A
:10059C0093422FD11A4BDB69194A43F40033D361D0
:1005AC00174BDB6903F40033FB60FB68144B9B694E
:1005BC00134A43F004039361114B9B6903F004034A
:1005CC00BB60BB6804233B6102237B610323FB619B
:1005DC0007F1100319460B4800F080F908233B6122
:1005EC0000237B610023BB6107F11003194605480A
:1005FC0000F074F900BF2037BD4680BD00440040B8
:10060C00001002400008014080B500AF084B1B6889
:10061C00074A43F010031360032000F02BF900206D
:10062C0000F008F8FFF772FE0023184680BD00BFEB
:10063C000020024080B582B000AF7860124B1A687F
:10064C00124B1B7819464FF47A73B3FBF1F3B2FBE0
:10065C00F3F3184600F035F90346002B01D00123C3
:10066C000EE07B680F2B0AD8002279684FF0FF3020
:10067C0000F00BF9064A7B681360002300E00123AD
:10068C0018460837BD4680BD640000206C00002071
:10069C006800002080B400AF054B1B781A46054B50
:1006AC001B681344034A136000BFBD4680BC7047EF
:1006BC006C000020D800002080B400AF024B1B68F7
:1006CC001846BD4680BC7047D800002080B584B069
:1006DC0000AF7860FFF7F0FFB8607B68FB60FB68E9
:1006EC00B3F1FF3F05D00A4B1B781A46FB68134445
:1006FC00FB6000BFFFF7E0FF0246BB68D31AFA6845
:10070C009A42F7D800BF00BF1037BD4680BD00BF6E
:10071C006C00002080B485B000AF78607B6803F07B
:10072C000703FB600C4BDB68BB60BA684FF6FF033A
:10073C001340BB60FB681A02BB68134343F0BF63F2
:10074C0043F40033BB60044ABB68D36000BF14376A
:10075C00BD4680BC704700BF00ED00E080B400AF28
:10076C00044BDB681B0A03F007031846BD4680BC2C
:10077C00704700BF00ED00E080B483B000AF0346CB
:10078C003960FB7197F90730002B0BDA3B68DAB252
:10079C000C49FB7903F00F03043B1201D2B20B445A
:1007AC001A7609E03B68DAB2074997F9073012016B
:1007BC00D2B20B4483F8002300BF0C37BD4680BC7B
:1007CC00704700BF00ED00E000E100E080B489B0AC
:1007DC0000AFF860B9607A60FB6803F00703FB6157
:1007EC00FB69C3F10703042B28BF0423BB61FB691E
:1007FC000433062B02D9FB69033B00E000237B6129
:10080C004FF0FF32BB6902FA03F3DA43BB681A40BC
:10081C007B699A404FF0FF317B6901FA03F3D943AE
:10082C007B680B40134318462437BD4680BC704789
:10083C0080B582B000AF78607B68013BB3F1807FFC
:10084C0001D301230FE00A4A7B68013B53600F215F
:10085C004FF0FF30FFF790FF054B00229A60044BDE
:10086C0007221A60002318460837BD4680BD00BF1A
:10087C0010E000E080B582B000AF78607868FFF7D8
:10088C0049FF00BF0837BD4680BD80B586B000AFBC
:10089C000346B9607A60FB7300237B61FFF75EFF50
:1008AC0078617A68B9687869FFF790FF024697F922
:1008BC000F3011461846FFF75FFF00BF1837BD46D3
:1008CC0080BD80B582B000AF78607868FFF7B0FF6C
:1008DC00034618460837BD4680BD000080B48BB077
:1008EC0000AF786039600023FB610023BB610023FB
:1008FC007B6100233B6200233B6100237B6269E147
:10090C0001227B6A02FA03F3FB613B681B68FA69FC
:10091C001340BB61BA69FB699A4240F058813B684D
:10092C005B689A4A93425ED0984A934275D8984A2B
:10093C00934258D0964A93426FD8964A934252D0DB
:10094C00944A934269D8944A93424CD0924A934227
:10095C0063D8924A934246D0904A93425DD8122B68
:10096C002AD8122B59D801A252F823F0F309000807
:10097C00CD090008DF090008210A0008270A000831
:10098C00270A0008270A0008270A0008270A000877
:10099C00270A0008270A0008270A0008270A000867
:1009AC00270A0008270A0008270A0008270A000857
:1009BC00D5090008E9090008794A934213D02CE0C4
:1009CC003B68DB683B6229E03B68DB6804333B62D5
:1009DC0024E03B68DB6808333B621FE03B68DB6864
:1009EC000C333B621AE03B689B68002B02D104235A
:1009FC003B6213E03B689B68012B05D108233B62EB
:100A0C007B68FA691A6109E008233B627B68FA6922
:100A1C005A6103E000233B6200E000BFBB69FF2B7F
:100A2C0001D87B6801E07B680433FB60BB69FF2B5A
:100A3C0002D87B6A9B0002E07B6A083B9B003B610F
:100A4C00FB681A680F213B6901FA03F3DB431A4078
:100A5C00396A3B6901FA03F31A43FB681A603B6875
:100A6C005B6803F08053002B00F0B1804D4B9B6909
:100A7C004C4A43F0010393614A4B9B6903F0010319
:100A8C00BB60BB68484A7B6A9B08023352F8233030
:100A9C007B617B6A03F003039B000F2202FA03F3D2
:100AAC00DB437A6913407B617B68404A934213D0E5
:100ABC007B683F4A93420DD07B683E4A934207D0F5
:100ACC007B683D4A934201D1032306E0042304E0F2
:100ADC00022302E0012300E000237A6A02F0030201
:100AEC00920093407A6913437B612F497B6A9B0880
:100AFC0002337A6941F823203B685B6803F4803346
:100B0C00002B06D02D4B1A682C49BB6913430B6084
:100B1C0006E02A4B1A68BB69DB43284913400B607B
:100B2C003B685B6803F40033002B06D0234B5A68F8
:100B3C002249BB6913434B6006E0204B5A68BB69E2
:100B4C00DB431E4913404B603B685B6803F4801326
:100B5C00002B06D0194B9A681849BB6913438B605C
:100B6C0006E0164B9A68BB69DB43144913408B6053
:100B7C003B685B6803F40013002B21D00F4BDA6841
:100B8C000E49BB691343CB6021E000BF000032105B
:100B9C000000311000002210000021100000121083
:100BAC00000011100010024000000140000801403C
:100BBC00000C0140001001400014014000040140F1
:100BCC00094BDA68BB69DB4307491340CB607B6A8E
:100BDC0001337B627B6A0F2B7FF692AE00BF00BFA6
:100BEC002C37BD4680BC70470004014080B483B0F4
:100BFC0000AF78600B467B8013467B707B78002BB4
:100C0C0003D07A887B681A6103E07B881A047B68BE
:100C1C001A6100BF0C37BD4680BC704780B483B0EE
:100C2C0000AF78600B467B807B68DA687B885A4023
:100C3C007B68DA6000BF0C37BD4680BC7047000093
:100C4C0080B586B000AF786000233B617B681B6881
:100C5C0003F00103002B00F08780924B5B6803F0DC
:100C6C000C03042B0CD08F4B5B6803F00C03082B8C
:100C7C0012D18C4B5B6803F48033B3F5803F0BD1FE
:100C8C00884B1B6803F40033002B6CD07B685B68CB
:100C9C00002B68D101232DE27B685B68B3F5803FA4
:100CAC0006D1804B1B687F4A43F4803313602EE0DF
:100CBC007B685B68002B0CD17A4B1B68794A23F458
:100CCC0080331360774B1B68764A23F480231360C0
:100CDC001DE07B685B68B3F5A02F0CD1714B1B68D2
:100CEC00704A43F4802313606E4B1B686D4A43F4C7
:100CFC00803313600BE06B4B1B686A4A23F4803320
:100D0C001360684B1B68674A23F4802313607B686D
:100D1C005B68002B13D0FFF7CFFC386108E0FFF7BE
:100D2C00CBFC02463B69D31A642B01D90323E1E1C6
:100D3C005C4B1B6803F40033002BF0D014E0FFF77E
:100D4C00BBFC386108E0FFF7B7FC02463B69D31ADD
:100D5C00642B01D90323CDE1524B1B6803F4003300
:100D6C00002BF0D100E000BF7B681B6803F002038E
:100D7C00002B63D04B4B5B6803F00C03002B0BD0A8
:100D8C00484B5B6803F00C03082B1CD1454B5B688C
:100D9C0003F48033002B16D1424B1B6803F0020383
:100DAC00002B05D07B681B69012B01D00123A1E12D
:100DBC003C4B1B6823F0F8027B685B69DB0039490C
:100DCC0013430B603AE07B681B69002B20D0364B39
:100DDC0001221A60FFF770FC386108E0FFF76CFC29
:100DEC0002463B69D31A022B01D9032382E12D4B16
:100DFC001B6803F00203002BF0D02A4B1B6823F076
:100E0C00F8027B685B69DB00264913430B6015E035
:100E1C00254B00221A60FFF74FFC386108E0FFF702
:100E2C004BFC02463B69D31A022B01D9032361E127
:100E3C001C4B1B6803F00203002BF0D17B681B6872
:100E4C0003F00803002B39D07B689B69002B19D069
:100E5C00164B01221A60FFF72FFC386108E0FFF7F0
:100E6C002BFC02463B69D31A022B01D9032341E127
:100E7C000C4B5B6A03F00203002BF0D0012000F056
:100E8C00E1FA1BE0094B00221A60FFF715FC3861F0
:100E9C000EE0FFF711FC02463B69D31A022B07D96F
:100EAC00032327E10010024000004242800442422A
:100EBC00924B5B6A03F00203002BEAD17B681B6840
:100ECC0003F00403002B00F0A6800023FB758B4B72
:100EDC00DB6903F08053002B0DD1884BDB69874A0B
:100EEC0043F08053D361854BDB6903F08053FB6087
:100EFC00FB680123FB75824B1B6803F48073002B8A
:100F0C0018D17F4B1B687E4A43F480731360FFF744
:100F1C00D3FB386108E0FFF7CFFB02463B69D31ADD
:100F2C00642B01D90323E5E0754B1B6803F4807334
:100F3C00002BF0D07B68DB68012B06D16F4B1B6A52
:100F4C006E4A43F0010313622DE07B68DB68002BD3
:100F5C000CD16A4B1B6A694A23F001031362674B7D
:100F6C001B6A664A23F0040313621CE07B68DB688F
:100F7C00052B0CD1614B1B6A604A43F004031362CE
:100F8C005E4B1B6A5D4A43F0010313620BE05B4B43
:100F9C001B6A5A4A23F001031362584B1B6A574AC7
:100FAC0023F0040313627B68DB68002B15D0FFF77A
:100FBC0083FB38610AE0FFF77FFB02463B69D31ADB
:100FCC0041F28832934201D9032393E04B4B1B6AC5
:100FDC0003F00203002BEED014E0FFF76DFB386139
:100FEC000AE0FFF769FB02463B69D31A41F28832EB
:100FFC00934201D903237DE0404B1B6A03F00203AB
:10100C00002BEED1FB7D012B05D13C4BDB693B4A20
:10101C0023F08053D3617B68DB69002B69D0374B9D
:10102C005B6803F00C03082B61D07B68DB69022B37
:10103C0046D1344B00221A60FFF73EFB386108E0C2
:10104C00FFF73AFB02463B69D31A022B01D9032363
:10105C0050E02A4B1B6803F00073002BF0D17B6827
:10106C001B6AB3F5803F08D1244B5B6823F4003234
:10107C007B689B68214913434B60204B5B6823F4CE
:10108C0074127B68196A7B685B6A0B431B491343B8
:10109C004B601C4B01221A60FFF70EFB386108E015
:1010AC00FFF70AFB02463B69D31A022B01D9032333
:1010BC0020E0124B1B6803F00073002BF0D018E0FB
:1010CC00104B00221A60FFF7F7FA386108E0FFF7BF
:1010DC00F3FA02463B69D31A022B01D9032309E028
:1010EC00064B1B6803F00073002BF0D101E00123C9
:1010FC0000E0002318461837BD4680BD00100240A2
:10110C00007000406000424280B584B000AF78604F
:10111C0039600023FB607E4B1B6803F007033A68C1
:10112C009A4210D97A4B1B6823F0070278493B6826
:10113C0013430B60764B1B6803F007033A689A4223
:10114C0001D00123E0E07B681B6803F00203002B55
:10115C0020D07B681B6803F00403002B05D06D4B7B
:10116C005B686C4A43F4E06353607B681B6803F074
:10117C000803002B05D0674B5B68664A43F4605349
:10118C005360644B5B6823F0F0027B689B68614999
:10119C0013434B607B681B6803F00103002B6AD080
:1011AC007B685B68012B07D15A4B1B6803F4003337
:1011BC00002B15D10123A7E07B685B68022B07D1BC
:1011CC00544B1B6803F00073002B09D101239BE0E7
:1011DC00504B1B6803F00203002B01D1012393E059
:1011EC004C4B5B6823F003027B685B6849491343F3
:1011FC004B60FFF761FAF8607B685B68012B12D1DA
:10120C000AE0FFF759FA0246FB68D31A41F288321A
:10121C00934201D9032377E03E4B5B6803F00C0348
:10122C00042BEED127E07B685B68022B1DD10AE012
:10123C00FFF742FA0246FB68D31A41F28832934216
:10124C0001D9032360E0334B5B6803F00C03082BDC
:10125C00EED110E0FFF730FA0246FB68D31A41F2E8
:10126C008832934201D903234EE02A4B5B6803F08A
:10127C000C03002BEED1264B1B6803F007033A68D6
:10128C009A4210D2224B1B6823F0070220493B687C
:10129C0013430B601E4B1B6803F007033A689A421A
:1012AC0001D0012330E07B681B6803F00403002BA2
:1012BC0008D0184B5B6823F4E0627B68DB68154947
:1012CC0013434B607B681B6803F00803002B09D0A9
:1012DC00104B5B6823F460527B681B69DB000D4983
:1012EC0013434B6000F01CF802460A4B5B681B0969
:1012FC0003F00F030849CB5C22FA03F3074A13608F
:10130C000020FFF797F9002318461037BD4680BD23
:10131C000020024000100240F42400086400002069
:10132C0090B48AB000AF2A4B3C1D0FCB84E80F0061
:10133C0040F201233B800023FB610023BB610023AF
:10134C007B6200237B6100233B62224B5B68FB6169
:10135C00FB6903F00C03042B02D0082B03D02DE007
:10136C001D4B3B622DE0FB699B0C03F00F0307F157
:10137C002802134413F8243C7B61FB6903F480338B
:10138C00002B13D0134B5B685B0C03F0010307F1CC
:10139C002802134413F8283CBB617B690E4A02FBFC
:1013AC0003F2BB69B2FBF3F37B6204E07B690B4A8B
:1013BC0002FB03F37B627B6A3B6202E0064B3B62FF
:1013CC0000BF3B6A18462837BD4690BC704700BF2B
:1013DC00E02400080010024000127A0000093D00D1
:1013EC0080B400AF024B1B681846BD4680BC7047EA
:1013FC006400002080B500AFFFF7F2FF0246054BFA
:10140C005B681B0A03F007030349CB5C22FA03F366
:10141C00184680BD001002400425000880B500AFBE
:10142C00FFF7DEFF0246054B5B68DB0A03F00703A0
:10143C000349CB5C22FA03F3184680BD001002402E
:10144C000425000880B485B000AF78600B4B1B6896
:10145C000B4AA2FB03235B0A7A6802FB03F3FB60D3
:10146C0000BF00BFFB685A1EFA60002BF8D100BF0A
:10147C0000BF1437BD4680BC704700BF640000201D
:10148C00D34D621080B582B000AF78607B68002BC2
:10149C0001D101233FE07B6893F83930DBB2002B9C
:1014AC0006D17B68002283F838207868FFF762F851
:1014BC007B68242283F839207B681B68DA687B6898
:1014CC001B6822F40052DA60786800F00BF97B6834
:1014DC001B681A697B681B6822F490421A617B684E
:1014EC001B685A697B681B6822F02A025A617B6868
:1014FC001B68DA687B681B6842F40052DA607B6810
:10150C000022DA637B68202283F839207B68202252
:10151C0083F83A20002318460837BD4680BD80B5B5
:10152C0088B002AFF860B9603B601346FB800023C3
:10153C007B61FB6893F83930DBB2202B40F0838061
:10154C00BB68002B02D0FB88002B01D101237BE070
:10155C00FB6893F83830012B01D1022374E0FB684F
:10156C00012283F83820FB680022DA63FB68212211
:10157C0083F83920FFF7A0F87861FB68FA889A8421
:10158C00FB68FA88DA8442E0FB68DB8C9BB2013B97
:10159C009AB2FB68DA84FB689B68B3F5805F22D152
:1015AC003B6800937B6900228021F86800F050F8BA
:1015BC000346002B01D0032346E0BB683B613B692B
:1015CC001B881A46FB681B68C2F308025A60FB684A
:1015DC001B69002B03D1BB680233BB6017E0BB68EF
:1015EC000133BB6013E03B6800937B6900228021D0
:1015FC00F86800F02DF80346002B01D0032323E0FC
:10160C00BB685A1CBA601A78FB681B685A60FB6886
:10161C00DB8C9BB2002BB7D13B6800937B6900221B
:10162C004021F86800F014F80346002B01D0032386
:10163C000AE0FB68202283F83920FB68002283F83B
:10164C003820002300E0022318461837BD4680BD21
:10165C0080B584B000AFF860B9603B601346FB7195
:10166C002CE0BB69B3F1FF3F28D0BB69002B07D03E
:10167C00FFF722F802463B68D31ABA699A421DD288
:10168C00FB681B68DA68FB681B6822F4D072DA60AE
:10169C00FB681B685A69FB681B6822F001025A61DF
:1016AC00FB68202283F83920FB68202283F83A203B
:1016BC00FB68002283F8382003230FE0FB681B68CB
:1016CC001A68BB681340BA689A420CBF0123002306
:1016DC00DBB21A46FB799A42C3D000231846103766
:1016EC00BD4680BDB0B584B000AF78600023FB6010
:1016FC007B681B681B6923F440517B68DA687B6844
:10170C001B680A431A617B689A687B681B691A43D9
:10171C007B685B691343FA681343FB607B681B6847
:10172C00DB6823F4B05323F00C037A681268F96871
:10173C000B43D3607B681B685B6923F440717B6847
:10174C009A697B681B680A435A617B681B686F4AFD
:10175C0093426BD1FFF762FE024613469B00134483
:10176C009A001A447B685B689B00B2FBF3F3684AEF
:10177C00A2FB03235B091C01FFF750FE0246134634
:10178C009B0013449A001A447B685B689B00B2FB75
:10179C00F3F5FFF743FE024613469B0013449A00F1
:1017AC001A447B685B689B00B2FBF3F3584AA2FBBC
:1017BC0003235B09642202FB03F3EB1A1B01323394
:1017CC00534AA2FB03235B0903F0F0031C44FFF70D
:1017DC0025FE024613469B0013449A001A447B686C
:1017EC005B689B00B2FBF3F5FFF718FE024613464D
:1017FC009B0013449A001A447B685B689B00B2FB05
:10180C00F3F3434AA2FB03235B09642202FB03F3B9
:10181C00EB1A1B0132333E4AA2FB03235B0903F094
:10182C000F027B681B6822449A606AE0FFF7E2FDB6
:10183C00024613469B0013449A001A447B685B686B
:10184C009B00B2FBF3F3324AA2FB03235B091C019E
:10185C00FFF7D0FD024613469B0013449A001A442E
:10186C007B685B689B00B2FBF3F5FFF7C3FD024698
:10187C0013469B0013449A001A447B685B689B00D8
:10188C00B2FBF3F3224AA2FB03235B09642202FBA3
:10189C0003F3EB1A1B0132331D4AA2FB03235B0932
:1018AC0003F0F0031C44FFF7A5FD024613469B0012
:1018BC0013449A001A447B685B689B00B2FBF3F5F7
:1018CC00FFF798FD024613469B0013449A001A44F6
:1018DC007B685B689B00B2FBF3F30D4AA2FB03230E
:1018EC005B09642202FB03F3EB1A1B013233084A37
:1018FC00A2FB03235B0903F00F027B681B682244E5
:10190C009A6000BF1037BD46B0BD00BF0038014023
:10191C001F85EB51002103E00B4B5B584350043106
:10192C000A480B4B42189A42F6D30A4A02E00023AB
:10193C0042F8043B084B9A42F9D3FEF7BDFDFEF783
:10194C00FFFBFEF76FFC70477425000800000020B9
:10195C007000002070000020EC000020FEE700006A
:10196C00014B1868704700BF0000002070B50E4690
:10197C00054618B183690BB900F00EFBAB69AC6876
:10198C0013B9284600F008FB2C4B9C4220D16C6804
:10199C00636EDB0705D4A389980502D4A06D00F013
:1019AC0099FBA38919071DD52369DBB1013EA368F7
:1019BC0016F8011F013BA36039BB002B38DA224615
:1019CC000A21284600F00EF9013011D00A2511E049
:1019DC001B4B9C4201D1AC68DAE71A4B9C4208BF06
:1019EC00EC68D5E72146284600F04EF90028DDD0FA
:1019FC004FF0FF35636EDA0705D4A3899B0502D43B
:101A0C00A06D00F068FB284670BD002B04DAA269BB
:101A1C009A4206DC0A2904D023685A1C22601970E9
:101A2C00C5E72246284600F0DDF80130BFD1DFE7DC
:101A3C000A2523685A1C22601D70DBE72C25000840
:101A4C004C2500080C250008024B01461868FFF7CE
:101A5C008DBF00BF000000202DE9F7431D465D4BF4
:101A6C0004461F680E46904627B1BB6913B9384629
:101A7C0000F092FA584B9C4267D17C68B8F1020F87
:101A8C0006D0B8F1010F00F29F80002DC0F29C80AF
:101A9C00636EDB0705D4A389980502D4A06D00F012
:101AAC0019FB2146384600F0E3F9616B41B104F1B2
:101ABC004403994202D0384600F07AFB002363635A
:101ACC000023A3616360A389190603D538462169F5
:101ADC0000F06EFBA389B8F1020F23F44A6323F0E4
:101AEC000303A3816CD001AB6A462146384600F053
:101AFC00F3FAA3891843A081002D30D1009D28460C
:101B0C0000F04EFB0646002855D1DDF80090A945A3
:101B1C004AD14FF0FF350022A26004F14702226047
:101B2C0022610122B4F90C306261626E43F002034F
:101B3C00D207A38105D413F4007F02D1A06D00F06D
:101B4C00CAFA284603B0BDE8F083244B9C4201D16D
:101B5C00BC6893E7224B9C4208BFFC688EE7002EC2
:101B6C00CDD0BB6913B9384600F016FAB8F1010FA5
:101B7C0008BFA389C4E9046504BF43F00103A38132
:101B8C00A289266012F008031CD0D30741BF0023A2
:101B9C006D42A360A56158BFA560656E15F0010587
:101BAC0015D112F4007FC8E7484600F0F9FA064652
:101BBC000028AED04D46A38943F08003A381D0E723
:101BCC000025A8E7A360E8E74FF0FF35B9E700254B
:101BDC00B7E700BF000000202C2500084C250008AA
:101BEC000C250008F8B50E461446054618B1836955
:101BFC000BB900F0D1F9214B9C422BD16C68A36935
:101C0C00A360A3891A072FD523696BB323692068B6
:101C1C00F6B2C01A63693746834204DC2146284673
:101C2C0000F026F930BBA3680130013BA3602368A8
:101C3C005A1C22601E706369834204D0A389DB079F
:101C4C0006D50A2E04D12146284600F011F988B990
:101C5C003846F8BD0A4B9C4201D1AC68CFE7094B22
:101C6C009C4208BFEC68CAE72146284600F00CF8F5
:101C7C000028CBD04FF0FF37EAE700BF2C25000837
:101C8C004C2500080C250008324B70B51D68064623
:101C9C000C4625B1AB6913B9284600F07DF92E4BE3
:101CAC009C420FD16C68A389B4F90C2019072CD471
:101CBC00DD0611D40923336042F040034FF0FF30AE
:101CCC00A3813EE0254B9C4201D1AC68EBE7244B51
:101CDC009C4208BFEC68E6E7580712D5616B41B12E
:101CEC0004F14403994202D0304600F061FA00231B
:101CFC006363A38923F02403A38100236360236916
:101D0C002360A38943F00803A38123694BB9A389FA
:101D1C0003F42073B3F5007F03D02146304600F066
:101D2C00FFF9A089B4F90C2010F001030AD00023AC
:101D3C00A36063695B42A361236943B910F080001F
:101D4C00BAD170BD810758BF6369A360F4E7002066
:101D5C00F7E700BF000000202C2500084C250008E8
:101D6C000C2500088A892DE9F041054610070C4620
:101D7C0058D44B68002B05DC0B6C002B02DC0020CC
:101D8C00BDE8F081E66A002EF9D0002312F48052EF
:101D9C002F682B6032D0606DA3895A0705D5636814
:101DAC00C01A636B0BB1236CC01A00230246E66A9F
:101DBC002846216AB047431CA38906D129681D29EE
:101DCC002CD82A4ACA40D60728D50022626022693C
:101DDC00D904226004D5421C01D12B6803B960657B
:101DEC00616B2F600029CAD004F14403994202D0E0
:101DFC00284600F0DDF900206063C1E7216A012369
:101E0C002846B047411CC7D12B68002BC4D01D2BD2
:101E1C0001D0162B01D12F60B1E7A38943F0400309
:101E2C00A381ADE70F69002FA9D0930718BF00233A
:101E3C000E6808BF4B69A6EB07080F608B60B8F102
:101E4C00000F9CDD43463A462846216AA66AB047F5
:101E5C00002806DCA3894FF0FF3043F04003A38138
:101E6C008EE70744A8EB0008E9E700BF010040201B
:101E7C0038B50B6905460C4613B90025284638BD04
:101E8C0018B183690BB900F087F8144B9C421BD135
:101E9C006C68B4F90C30002BEFD0626ED00704D410
:101EAC00990502D4A06D00F015F928462146FFF7DC
:101EBC0059FF636E0546DA07E0D4A3899B05DDD490
:101ECC00A06D00F008F9D9E7054B9C4201D1AC6834
:101EDC00DFE7044B9C4208BFEC68DAE72C250008CE
:101EEC004C2500080C250008002310B50446C0E959
:101EFC000033C0E90433836081814366C28183610E
:101F0C00194608225C30FEF73FF9054B24626362E8
:101F1C00044BA362044BE362044B236310BD00BF6C
:101F2C00292300084B23000883230008A72300085B
:101F3C00014900F0AFB800BF7D1E000870B56825E0
:101F4C004A1E55430E4605F1740100F07DF9044616
:101F5C0040B10021C0E900160C30A06005F1680208
:101F6C00FEF712F9204670BD014800F0B3B800BF6F
:101F7C00E4000020014800F0AEB800BFE4000020EF
:101F8C00014800F0A7B800BFDF000020014800F0B6
:101F9C00A2B800BFDF00002010B50446FFF7F0FF29
:101FAC00A3691BB1BDE81040FFF7F0BFC4E91233C1
:101FBC002365134B134A1B68A262A34208BF01237B
:101FCC00204608BFA36100F01FF86060204600F0B7
:101FDC001BF8A060204600F017F800220421E060F6
:101FEC006068FFF781FF01220921A068FFF77CFFE1
:101FFC0002221221E068FFF777FF0123A361D1E7EA
:10200C00F02400083D1F0008F8B50746FFF7ACFFA9
:10201C001E4B1E68B36913B93046FFF7BDFF483637
:10202C00D6E90134013B03D533680BB33668F7E7C7
:10203C00B4F90C50D5B9164B04F15800E360656641
:10204C0000F047F8FFF796FF08222946C4E901552E
:10205C00C4E904552560A56104F15C00FEF794F811
:10206C00C4E90D55C4E912552046F8BD6834D9E7CA
:10207C0004213846FFF762FF044630600028D5D1B2
:10208C00FFF778FF0C233B60EEE700BFF02400085D
:10209C000100FFFF2DE9F84306468846002700F1B2
:1020AC004804D4E90195B9F1010905D52468002C3F
:1020BC00F7D13846BDE8F883AB89012B07D9B5F9C0
:1020CC000E30013303D029463046C04707436835EC
:1020DC00E9E770477047704770B50E46B1F90E10BE
:1020EC00144600291D4696B007DA00232B60B389ED
:1020FC001A0610D44FF480630EE06A4600F074F9AF
:10210C000028F2DB019A02F47042A2F500535A4205
:10211C005A412A60EEE740230020236016B070BDC0
:10212C008B8973B59D0706460C4607D504F147030A
:10213C00236023610123636102B070BD6A4601AB69
:10214C00FFF7CAFF00990546304600F07DF848B904
:10215C00B4F90C309A05EFD423F0030343F00203D7
:10216C00A381E3E70D4BB362A389206043F08003A6
:10217C00A381009B20616361019B5BB13046B4F984
:10218C000E1000F043F928B1A38923F0030343F0A8
:10219C000103A381A0890543A581CDE73D1F00085C
:1021AC00024B0146186800F04FB800BF0000002039
:1021BC0038B50546002943D051F8043C0C1F002BC0
:1021CC00B8BFE41800F044F91E4A1368104633B93E
:1021DC00636014602846BDE8384000F03FB9A34264
:1021EC000AD921686218934201BF1A685B685218B9
:1021FC00226063600460EDE71A465B680BB1A34292
:10220C00FAD911685018A0420BD12068014450181B
:10221C0083421160DED118685B6801441160536021
:10222C00D8E702D90C232B60D4E7206821188B4205
:10223C0001BF19685B680918216063605460C9E7C5
:10224C0038BD00BF90000020F8B5CD1C25F003056B
:10225C0008350C2D38BF0C25002D064601DBA94294
:10226C0003D90C2333600020F8BD00F0F1F82149AC
:10227C000A6814469CB9204F3B6823B92146304666
:10228C0000F03CF838602946304600F037F8431C23
:10229C0023D10C233046336000F0E0F8E3E72368E9
:1022AC005B1B17D40B2B03D923601C44256004E063
:1022BC006368A2420CBF0B605360304600F0CEF84E
:1022CC0004F10B00231D20F00700C21ACCD01B1AFE
:1022DC00A350C9E722466468CCE7C41C24F003046D
:1022EC00A042E3D0211A304600F008F80130DDD1CD
:1022FC00CFE700BF900000209400002038B50023E9
:10230C00054D044608462B60FEF7AAF8431C02D183
:10231C002B6803B1236038BDE800002010B50C46D3
:10232C00B1F90E1000F0A0F80028ABBF636DA389C3
:10233C001B1823F48053ACBF6365A38110BD2DE93A
:10234C00F0411F468B890546DB050C46164605D524
:10235C0002230022B1F90E1000F068F8A38932466E
:10236C0023F48053A38128463B46B4F90E10BDE8F4
:10237C00F04100F017B810B50C46B1F90E1000F092
:10238C0055F8431CA38915BF606523F4805343F4AF
:10239C008053A38118BFA38110BDB1F90E1000F0BA
:1023AC0013B8000038B50446084611460022054D06
:1023BC002A601A46FDF722FF431C02D12B6803B199
:1023CC00236038BDE800002038B50023054D0446D5
:1023DC0008462B60FEF713F8431C02D12B6803B19F
:1023EC00236038BDE800002038B50023064D0446B4
:1023FC00084611462B60FEF70DF8431C02D12B68E2
:10240C0003B1236038BD00BFE800002038B50023BD
:10241C00054D044608462B60FEF70BF8431C02D111
:10242C002B6803B1236038BDE800002038B50446A2
:10243C00084611460022054D2A601A46FEF703F89D
:10244C00431C02D12B6803B1236038BDE800002087
:10245C000148FFF73FBE00BFE00000200148FFF736
:10246C003ABE00BFE000002038B5044608461146CD
:10247C000022054D2A601A46FDF7A4FF431C02D129
:10248C002B6803B1236038BDE8000020F8B500BF0D
:10249C00F8BC08BC9E467047F8B500BFF8BC08BC39
:0424AC009E46704791
:1024B00048656C6C6F2053544D3332205653636F14
:1024C000646521210D00000048656C6C6F20535439
:1024D0004D3332205653636F64650D0A00000000CF
:1024E00002030405060708090A0B0C0D0E0F101055
:1024F00004000020000000000000000001020304AE
:1025000006070809000000000102030400000000A3
:1025100000000000000000000000000000000000BB
:1025200000000000000000000000000000000000AB
:10253000000000000000000000000000000000009B
:10254000000000000000000000000000000000008B
:10255000000000000000000000000000000000007B
:0C2560000000000000000000000000006F
:04256C003101000831
:042570000D01000851
:1025740004000020000000002C2500084C25000861
:102584000C2500080000000000000000000000000E
:102594000000000000000000000000000000000037
:1025A4000000000000000000000000000000000027
:1025B4000000000000000000000000000000000017
:1025C4000000000000000000000000000000000007
:1025D4000000000000A24A041000000001000000F6
:0400000508001921B5
:00000001FF
