:020000040800F2
:1000000000500020F11100081D030008290300081A
:100010002F030008350300083B0300080000000020
:100020000000000000000000000000004103000884
:100030004D03000800000000590300086503000894
:100040003912000839120008391200083912000864
:100050003912000839120008391200083912000854
:100060003912000839120008391200083912000844
:100070003912000839120008391200083912000834
:100080003912000839120008391200083912000824
:100090003912000839120008391200083912000814
:1000A0003912000839120008391200083912000804
:1000B00039120008391200083912000839120008F4
:1000C00039120008391200083912000839120008E4
:1000D00039120008391200083912000839120008D4
:1000E0003912000839120008391200080000000017
:1000F0000000000000000000000000000000000000
:0C01000000000000000000005FF808F1A3
:10010C0010B5054C237833B9044B13B10448AFF345
:10011C0000800123237010BD0C00002000000000A3
:10012C003C12000808B5034B1BB103490348AFF35D
:10013C00008008BD00000000100000203C120008E8
:10014C0070B500260C4D0D4C641BA410A64209D1B1
:10015C0001F06EF800260A4D0A4C641BA410A6424E
:10016C0005D170BD55F8043B98470136EEE755F8BC
:10017C00043B98470136F2E7741200087412000829
:10018C00741200087812000803460244934200D10E
:10019C00704703F8011BF9E780B586B000AF07F193
:1001AC00080300221A605A609A60DA60124B9B694D
:1001BC00114A43F0080393610F4B9B6903F008034A
:1001CC007B607B6800224FF480510C4800F0F0FB00
:1001DC004FF48053BB600123FB6000233B6102237F
:1001EC007B6107F108031946044800F059FA00BF77
:1001FC001837BD4680BD00BF00100240000C014006
:10020C0080B500AF00F0E2F800F00EF8FFF7C4FF85
:10021C004FF48051034800F0E3FBC82000F038F99C
:10022C00F6E700BF000C014080B590B000AF07F1BD
:10023C001803282200211846FFF7A6FF3B1D0022B9
:10024C001A605A609A60DA601A610223BB6101235A
:10025C00BB621023FB6200237B6307F11803184673
:10026C0000F0D0FB0346002B01D000F018F80F2350
:10027C007B600023BB600023FB6000233B610023F9
:10028C007B613B1D0021184600F020FE0346002B2D
:10029C0001D000F004F800BF4037BD4680BD80B4EB
:1002AC0000AF00BFBD4680BC7047000080B485B075
:1002BC0000AF154B9B69144A43F001039361124B39
:1002CC009B6903F00103BB60BB680F4BDB690E4AF3
:1002DC0043F08053D3610C4BDB6903F080537B609C
:1002EC007B680A4B5B68FB60FB6823F0E063FB6098
:1002FC00FB6843F00073FB60044AFB68536000BF6B
:10030C001437BD4680BC704700100240000001400D
:10031C0080B400AF00BFBD4680BC704780B400AF56
:10032C00FEE780B400AFFEE780B400AFFEE780B418
:10033C0000AFFEE780B400AF00BFBD4680BC704785
:10034C0080B400AF00BFBD4680BC704780B400AF26
:10035C0000BFBD4680BC704780B500AF00F07CF894
:10036C0000BF80BD80B400AF154B1B68144A43F02E
:10037C0001031360124B5A681149124B13404B6026
:10038C000F4B1B680E4A23F0847323F480331360E5
:10039C000B4B1B680A4A23F480231360084B5B68E1
:1003AC00074A23F4FE035360054B4FF41F029A6077
:1003BC00054B4FF000629A6000BFBD4680BC704791
:1003CC00001002400000FFF800ED00E080B500AF27
:1003DC00084B1B68074A43F010031360032000F01E
:1003EC002BF9002000F008F8FFF760FF00231846F7
:1003FC0080BD00BF0020024080B582B000AF7860A5
:10040C00124B1A68124B1B7819464FF47A73B3FBD4
:10041C00F1F3B2FBF3F3184600F035F90346002B69
:10042C0001D001230EE07B680F2B0AD800227968DB
:10043C004FF0FF3000F00BF9064A7B681360002385
:10044C0000E0012318460837BD4680BD000000209F
:10045C00080000200400002080B400AF054B1B787E
:10046C001A46054B1B681344034A136000BFBD4674
:10047C0080BC7047080000202800002080B400AF2A
:10048C00024B1B681846BD4680BC704728000020F4
:10049C0080B584B000AF7860FFF7F0FFB8607B6880
:1004AC00FB60FB68B3F1FF3F05D00A4B1B781A4683
:1004BC00FB681344FB6000BFFFF7E0FF0246BB681C
:1004CC00D31AFA689A42F7D800BF00BF1037BD465E
:1004DC0080BD00BF0800002080B485B000AF7860FC
:1004EC007B6803F00703FB600C4BDB68BB60BA68EE
:1004FC004FF6FF031340BB60FB681A02BB68134343
:10050C0043F0BF6343F40033BB60044ABB68D36061
:10051C0000BF1437BD4680BC704700BF00ED00E043
:10052C0080B400AF044BDB681B0A03F007031846CA
:10053C00BD4680BC704700BF00ED00E080B483B0C6
:10054C0000AF03463960FB7197F90730002B0BDACB
:10055C003B68DAB20C49FB7903F00F03043B120140
:10056C00D2B20B441A7609E03B68DAB2074997F924
:10057C0007301201D2B20B4483F8002300BF0C37B2
:10058C00BD4680BC704700BF00ED00E000E100E01C
:10059C0080B489B000AFF860B9607A60FB6803F092
:1005AC000703FB61FB69C3F10703042B28BF04237A
:1005BC00BB61FB690433062B02D9FB69033B00E0EA
:1005CC0000237B614FF0FF32BB6902FA03F3DA437D
:1005DC00BB681A407B699A404FF0FF317B6901FA86
:1005EC0003F3D9437B680B40134318462437BD46AD
:1005FC0080BC704780B582B000AF78607B68013BEF
:10060C00B3F1807F01D301230FE00A4A7B68013BE1
:10061C0053600F214FF0FF30FFF790FF054B002286
:10062C009A60044B07221A60002318460837BD460F
:10063C0080BD00BF10E000E080B582B000AF7860F4
:10064C007868FFF749FF00BF0837BD4680BD80B50D
:10065C0086B000AF0346B9607A60FB7300237B6100
:10066C00FFF75EFF78617A68B9687869FFF790FFE9
:10067C00024697F90F3011461846FFF75FFF00BF8F
:10068C001837BD4680BD80B582B000AF7860786801
:10069C00FFF7B0FF034618460837BD4680BD000083
:1006AC0080B48BB000AF786039600023FB6100230D
:1006BC00BB6100237B6100233B6200233B61002371
:1006CC007B6269E101227B6A02FA03F3FB613B68FE
:1006DC001B68FA691340BB61BA69FB699A4240F026
:1006EC0058813B685B689A4A93425ED0984A934221
:1006FC0075D8984A934258D0964A93426FD8964AE6
:10070C00934252D0944A934269D8944A93424CD023
:10071C00924A934263D8924A934246D0904A93426B
:10072C005DD8122B2AD8122B59D801A252F823F0DB
:10073C00B707000891070008A3070008E5070008A1
:10074C00EB070008EB070008EB070008EB070008B5
:10075C00EB070008EB070008EB070008EB070008A5
:10076C00EB070008EB070008EB070008EB07000895
:10077C00EB07000899070008AD070008794A934277
:10078C0013D02CE03B68DB683B6229E03B68DB68FC
:10079C0004333B6224E03B68DB6808333B621FE0B8
:1007AC003B68DB680C333B621AE03B689B68002BB0
:1007BC0002D104233B6213E03B689B68012B05D1FB
:1007CC0008233B627B68FA691A6109E008233B62E3
:1007DC007B68FA695A6103E000233B6200E000BFCA
:1007EC00BB69FF2B01D87B6801E07B680433FB609D
:1007FC00BB69FF2B02D87B6A9B0002E07B6A083B3B
:10080C009B003B61FB681A680F213B6901FA03F3FB
:10081C00DB431A40396A3B6901FA03F31A43FB685C
:10082C001A603B685B6803F08053002B00F0B180CA
:10083C004D4B9B694C4A43F0010393614A4B9B69B6
:10084C0003F00103BB60BB68484A7B6A9B08023318
:10085C0052F823307B617B6A03F003039B000F2269
:10086C0002FA03F3DB437A6913407B617B68404AED
:10087C00934213D07B683F4A93420DD07B683E4A2B
:10088C00934207D07B683D4A934201D1032306E093
:10089C00042304E0022302E0012300E000237A6A2F
:1008AC0002F00302920093407A6913437B612F4953
:1008BC007B6A9B0802337A6941F823203B685B68AA
:1008CC0003F48033002B06D02D4B1A682C49BB69DE
:1008DC0013430B6006E02A4B1A68BB69DB432849BB
:1008EC0013400B603B685B6803F40033002B06D0AD
:1008FC00234B5A682249BB6913434B6006E0204BDB
:10090C005A68BB69DB431E4913404B603B685B680C
:10091C0003F48013002B06D0194B9A681849BB6955
:10092C0013438B6006E0164B9A68BB69DB43144992
:10093C0013408B603B685B6803F40013002B21D0E1
:10094C000F4BDA680E49BB691343CB6021E000BF43
:10095C0000003210000031100000221000002110A5
:10096C0000001210000011100010024000000140A5
:10097C0000080140000C014000100140001401402F
:10098C0000040140094BDA68BB69DB43074913409B
:10099C00CB607B6A01337B627B6A0F2B7FF692AE56
:1009AC0000BF00BF2C37BD4680BC7047000401401F
:1009BC0080B483B000AF78600B467B8013467B70AD
:1009CC007B78002B03D07A887B681A6103E07B88E4
:1009DC001A047B681A6100BF0C37BD4680BC704797
:1009EC0080B483B000AF78600B467B807B68DA689C
:1009FC007B885A407B68DA6000BF0C37BD4680BCF0
:100A0C007047000080B586B000AF786000233B6172
:100A1C007B681B6803F00103002B00F08780924B6E
:100A2C005B6803F00C03042B0CD08F4B5B6803F05A
:100A3C000C03082B12D18C4B5B6803F48033B3F599
:100A4C00803F0BD1884B1B6803F40033002B6CD018
:100A5C007B685B68002B68D101232DE27B685B68A7
:100A6C00B3F5803F06D1804B1B687F4A43F480333B
:100A7C0013602EE07B685B68002B0CD17A4B1B68F3
:100A8C00794A23F480331360774B1B68764A23F43E
:100A9C00802313601DE07B685B68B3F5A02F0CD13D
:100AAC00714B1B68704A43F4802313606E4B1B68B8
:100ABC006D4A43F4803313600BE06B4B1B686A4A3E
:100ACC0023F480331360684B1B68674A23F480233C
:100ADC0013607B685B68002B13D0FFF7CFFC386189
:100AEC0008E0FFF7CBFC02463B69D31A642B01D913
:100AFC000323E1E15C4B1B6803F40033002BF0D0C3
:100B0C0014E0FFF7BBFC386108E0FFF7B7FC0246C6
:100B1C003B69D31A642B01D90323CDE1524B1B68DB
:100B2C0003F40033002BF0D100E000BF7B681B689E
:100B3C0003F00203002B63D04B4B5B6803F00C03F8
:100B4C00002B0BD0484B5B6803F00C03082B1CD11B
:100B5C00454B5B6803F48033002B16D1424B1B686A
:100B6C0003F00203002B05D07B681B69012B01D01D
:100B7C000123A1E13C4B1B6823F0F8027B685B6905
:100B8C00DB00394913430B603AE07B681B69002B8F
:100B9C0020D0364B01221A60FFF770FC386108E058
:100BAC00FFF76CFC02463B69D31A022B01D90323D5
:100BBC0082E12D4B1B6803F00203002BF0D02A4B73
:100BCC001B6823F0F8027B685B69DB002649134342
:100BDC000B6015E0254B00221A60FFF74FFC3861C3
:100BEC0008E0FFF74BFC02463B69D31A022B01D9F4
:100BFC00032361E11C4B1B6803F00203002BF0D1B3
:100C0C007B681B6803F00803002B39D07B689B6959
:100C1C00002B19D0164B01221A60FFF72FFC3861FC
:100C2C0008E0FFF72BFC02463B69D31A022B01D9D3
:100C3C00032341E10C4B5B6A03F00203002BF0D061
:100C4C00012000F0AFFA1BE0094B00221A60FFF7FD
:100C5C0015FC38610EE0FFF711FC02463B69D31A14
:100C6C00022B07D9032327E1001002400000424267
:100C7C0080044242924B5B6A03F00203002BEAD1E0
:100C8C007B681B6803F00403002B00F0A680002394
:100C9C00FB758B4BDB6903F08053002B0DD1884B1C
:100CAC00DB69874A43F08053D361854BDB6903F0E2
:100CBC008053FB60FB680123FB75824B1B6803F4BC
:100CCC008073002B18D17F4B1B687E4A43F48073D2
:100CDC001360FFF7D3FB386108E0FFF7CFFB024648
:100CEC003B69D31A642B01D90323E5E0754B1B68D0
:100CFC0003F48073002BF0D07B68DB68012B06D1EA
:100D0C006F4B1B6A6E4A43F0010313622DE07B6844
:100D1C00DB68002B0CD16A4B1B6A694A23F0010378
:100D2C001362674B1B6A664A23F0040313621CE0D0
:100D3C007B68DB68052B0CD1614B1B6A604A43F066
:100D4C00040313625E4B1B6A5D4A43F0010313629A
:100D5C000BE05B4B1B6A5A4A23F001031362584B9E
:100D6C001B6A574A23F0040313627B68DB68002B71
:100D7C0015D0FFF783FB38610AE0FFF77FFB0246D3
:100D8C003B69D31A41F28832934201D9032393E091
:100D9C004B4B1B6A03F00203002BEED014E0FFF761
:100DAC006DFB38610AE0FFF769FB02463B69D31A19
:100DBC0041F28832934201D903237DE0404B1B6AF8
:100DCC0003F00203002BEED1FB7D012B05D13C4B34
:100DDC00DB693B4A23F08053D3617B68DB69002BD2
:100DEC0069D0374B5B6803F00C03082B61D07B6830
:100DFC00DB69022B46D1344B00221A60FFF73EFB15
:100E0C00386108E0FFF73AFB02463B69D31A022B24
:100E1C0001D9032350E02A4B1B6803F00073002B0D
:100E2C00F0D17B681B6AB3F5803F08D1244B5B681B
:100E3C0023F400327B689B68214913434B60204BA1
:100E4C005B6823F474127B68196A7B685B6A0B43DA
:100E5C001B4913434B601C4B01221A60FFF70EFB1E
:100E6C00386108E0FFF70AFB02463B69D31A022BF4
:100E7C0001D9032320E0124B1B6803F00073002BF5
:100E8C00F0D018E0104B00221A60FFF7F7FA386127
:100E9C0008E0FFF7F3FA02463B69D31A022B01D99B
:100EAC00032309E0064B1B6803F00073002BF0D101
:100EBC0001E0012300E0002318461837BD4680BD31
:100ECC0000100240007000406000424280B584B0C7
:100EDC0000AF786039600023FB607E4B1B6803F029
:100EEC0007033A689A4210D97A4B1B6823F0070221
:100EFC0078493B6813430B60764B1B6803F0070380
:100F0C003A689A4201D00123E0E07B681B6803F049
:100F1C000203002B20D07B681B6803F00403002B1A
:100F2C0005D06D4B5B686C4A43F4E06353607B689F
:100F3C001B6803F00803002B05D0674B5B68664AFF
:100F4C0043F460535360644B5B6823F0F0027B689E
:100F5C009B68614913434B607B681B6803F001037A
:100F6C00002B6AD07B685B68012B07D15A4B1B683E
:100F7C0003F40033002B15D10123A7E07B685B68D9
:100F8C00022B07D1544B1B6803F00073002B09D1C3
:100F9C0001239BE0504B1B6803F00203002B01D193
:100FAC00012393E04C4B5B6823F003027B685B6886
:100FBC00494913434B60FFF761FAF8607B685B6843
:100FCC00012B12D10AE0FFF759FA0246FB68D31A3B
:100FDC0041F28832934201D9032377E03E4B5B68A0
:100FEC0003F00C03042BEED127E07B685B68022B2B
:100FFC001DD10AE0FFF742FA0246FB68D31A41F210
:10100C008832934201D9032360E0334B5B6803F0D1
:10101C000C03082BEED110E0FFF730FA0246FB6808
:10102C00D31A41F28832934201D903234EE02A4B62
:10103C005B6803F00C03002BEED1264B1B6803F00E
:10104C0007033A689A4210D2224B1B6823F007021E
:10105C0020493B6813430B601E4B1B6803F00703CE
:10106C003A689A4201D0012330E07B681B6803F098
:10107C000403002B08D0184B5B6823F4E0627B68F8
:10108C00DB68154913434B607B681B6803F008034E
:10109C00002B09D0104B5B6823F460527B681B69F2
:1010AC00DB000D4913434B6000F01CF802460A4B61
:1010BC005B681B0903F00F030849CB5C22FA03F3AE
:1010CC00074A13600020FFF797F9002318461037E2
:1010DC00BD4680BD00200240001002406412000892
:1010EC000000002090B48AB000AF2A4B3C1D0FCBFF
:1010FC0084E80F0040F201233B800023FB610023B6
:10110C00BB6100237B6200237B6100233B62224B8B
:10111C005B68FB61FB6903F00C03042B02D0082B0A
:10112C0003D02DE01D4B3B622DE0FB699B0C03F0C3
:10113C000F0307F12802134413F8243C7B61FB696D
:10114C0003F48033002B13D0134B5B685B0C03F060
:10115C00010307F12802134413F8283CBB617B6997
:10116C000E4A02FB03F2BB69B2FBF3F37B6204E0B1
:10117C007B690B4A02FB03F37B627B6A3B6202E0F6
:10118C00064B3B6200BF3B6A18462837BD4690BCF5
:10119C00704700BF541200080010024000127A0081
:1011AC0000093D0080B485B000AF78600B4B1B6824
:1011BC000B4AA2FB03235B0A7A6802FB03F3FB6076
:1011CC0000BF00BFFB685A1EFA60002BF8D100BFAD
:1011DC0000BF1437BD4680BC704700BF0000002024
:1011EC00D34D6210002103E00B4B5B58435004318C
:1011FC000A480B4B42189A42F6D30A4A02E00023E3
:10120C0042F8043B084B9A42F9D3FFF7ABF8FEF7D0
:10121C0097FFFEF7F5FF70477C12000800000020D6
:10122C000C0000200C0000202C000020FEE7000029
:10123C00F8B500BFF8BC08BC9E467047F8B500BFB7
:08124C00F8BC08BC9E46704787
:1012540002030405060708090A0B0C0D0E0F1010F3
:101264000000000000000000010203040607080952
:04127400310100083C
:041278000D0100085C
:0C127C0000A24A04100000000100000065
:04000005080011F1ED
:00000001FF
